S01400007472616669635F6C696768742E7372656320
S11300000C942A000C9447000C9447000C9447006D
S11300100C9447000C9447000C9447000C94470040
S11300200C9447000C9447000C9447000C94D8009F
S11300300C9447000C9447000C9447000C94470020
S11300400C9447000C9447000C9447000C94470010
S11300500C94470011241FBECFE5D8E0DEBFCDBF0E
S113006010E0A0E6B0E0ECE1F2E002C005900D92F1
S1130070A236B107D9F710E0A2E6B0E001C01D92A4
S1130080A436B107E1F70E94BF000C940C010C9454
S113009000008AB38E6F8ABBA69AA79A08959BB371
S11300A091709BBB843049F1853048F48130C9F0AC
S11300B0813098F08230C9F08330B1F51AC08730AE
S11300C041F1883028F48530E1F0863069F51DC0AF
S11300D0883019F1893041F524C08BB38E678BBB0E
S11300E008958BB380668BBB08958BB3866B8BBBF3
S11300F008958BB38E698BBB08958BB38C6C8BBBCB
S113010008958BB38A6D8BBB08958BB38A6F8BBBB9
S113011008958BB38E608BBB08958BB38E6F8BBBAE
S113012008958BB38E6D8BBB0895CF93AF9AAE9821
S11301306AE00E940001C92F0E944F008FE99FE0EE
S11301400197F1F700C00000AE9AAF988C2F0E947F
S11301504F008FE99FE00197F1F700C00000CF91B5
S1130160089585E883BF89B7816089BF08958DE8C4
S113017083BF88EC8CBF89B7826089BF0895A09A39
S1130180A19AA89AA9980E94B1000E944900789463
S1130190809160000E94950080916200882319F488
S11301A0A99AA898F5CF813099F7A89AA998F0CF81
S11301B01F920F920FB60F9211248F939F938091E9
S11301C063008F5F809363008E3399F480916000A5
S11301D0882321F081508093600009C090916200CF
S11301E081E089278093620084E18093600010920B
S11301F063009F918F910F900FBE0F901F901895E1
S1130200991B79E004C0991F961708F0961B881F64
S10F02107A95C9F780950895F894FFCF03
S105021C1400C8
S9030000FC
